{"contracts/MyContract.sol":{"MyContract":{"abi":[{"anonymous":false,"inputs":[{"indexed":true,"internalType":"address","name":"minter","type":"address"}],"name":"Minted","type":"event"},{"inputs":[],"name":"mint","outputs":[],"stateMutability":"nonpayable","type":"function"},{"inputs":[],"name":"totalMinted","outputs":[{"internalType":"uint256","name":"","type":"uint256"}],"stateMutability":"view","type":"function"}],"evm":{"bytecode":{"linkReferences":{},"object":"608060405234801561001057600080fd5b50610194806100206000396000f3fe608060405234801561001057600080fd5b50600436106100365760003560e01c80631249c58b1461003b578063a2309ff814610045575b600080fd5b610043610063565b005b61004d6100c1565b60405161005a91906100e0565b60405180910390f35b6001600080828254610075919061012a565b925050819055503373ffffffffffffffffffffffffffffffffffffffff167f90ddedd5a25821bba11fbb98de02ec1f75c1be90ae147d6450ce873e7b78b5d860405160405180910390a2565b60005481565b6000819050919050565b6100da816100c7565b82525050565b60006020820190506100f560008301846100d1565b92915050565b7f4e487b7100000000000000000000000000000000000000000000000000000000600052601160045260246000fd5b6000610135826100c7565b9150610140836100c7565b9250828201905080821115610158576101576100fb565b5b9291505056fea2646970667358221220b138ac46c353a94708edd1cbc5024b5f8cfb3f6f224582f3d181f7848324df8064736f6c63430008140033","opcodes":"PUSH1 0x80 PUSH1 0x40 MSTORE CALLVALUE DUP1 ISZERO PUSH2 0x10 JUMPI PUSH1 0x0 DUP1 REVERT JUMPDEST POP PUSH2 0x194 DUP1 PUSH2 0x20 PUSH1 0x0 CODECOPY PUSH1 0x0 RETURN INVALID PUSH1 0x80 PUSH1 0x40 MSTORE CALLVALUE DUP1 ISZERO PUSH2 0x10 JUMPI PUSH1 0x0 DUP1 REVERT JUMPDEST POP PUSH1 0x4 CALLDATASIZE LT PUSH2 0x36 JUMPI PUSH1 0x0 CALLDATALOAD PUSH1 0xE0 SHR DUP1 PUSH4 0x1249C58B EQ PUSH2 0x3B JUMPI DUP1 PUSH4 0xA2309FF8 EQ PUSH2 0x45 JUMPI JUMPDEST PUSH1 0x0 DUP1 REVERT JUMPDEST PUSH2 0x43 PUSH2 0x63 JUMP JUMPDEST STOP JUMPDEST PUSH2 0x4D PUSH2 0xC1 JUMP JUMPDEST PUSH1 0x40 MLOAD PUSH2 0x5A SWAP2 SWAP1 PUSH2 0xE0 JUMP JUMPDEST PUSH1 0x40 MLOAD DUP1 SWAP2 SUB SWAP1 RETURN JUMPDEST PUSH1 0x1 PUSH1 0x0 DUP1 DUP3 DUP3 SLOAD PUSH2 0x75 SWAP2 SWAP1 PUSH2 0x12A JUMP JUMPDEST SWAP3 POP POP DUP2 SWAP1 SSTORE POP CALLER PUSH20 0xFFFFFFFFFFFFFFFFFFFFFFFFFFFFFFFFFFFFFFFF AND PUSH32 0x90DDEDD5A25821BBA11FBB98DE02EC1F75C1BE90AE147D6450CE873E7B78B5D8 PUSH1 0x40 MLOAD PUSH1 0x40 MLOAD DUP1 SWAP2 SUB SWAP1 LOG2 JUMP JUMPDEST PUSH1 0x0 SLOAD DUP2 JUMP JUMPDEST PUSH1 0x0 DUP2 SWAP1 POP SWAP2 SWAP1 POP JUMP JUMPDEST PUSH2 0xDA DUP2 PUSH2 0xC7 JUMP JUMPDEST DUP3 MSTORE POP POP JUMP JUMPDEST PUSH1 0x0 PUSH1 0x20 DUP3 ADD SWAP1 POP PUSH2 0xF5 PUSH1 0x0 DUP4 ADD DUP5 PUSH2 0xD1 JUMP JUMPDEST SWAP3 SWAP2 POP POP JUMP JUMPDEST PUSH32 0x4E487B7100000000000000000000000000000000000000000000000000000000 PUSH1 0x0 MSTORE PUSH1 0x11 PUSH1 0x4 MSTORE PUSH1 0x24 PUSH1 0x0 REVERT JUMPDEST PUSH1 0x0 PUSH2 0x135 DUP3 PUSH2 0xC7 JUMP JUMPDEST SWAP2 POP PUSH2 0x140 DUP4 PUSH2 0xC7 JUMP JUMPDEST SWAP3 POP DUP3 DUP3 ADD SWAP1 POP DUP1 DUP3 GT ISZERO PUSH2 0x158 JUMPI PUSH2 0x157 PUSH2 0xFB JUMP JUMPDEST JUMPDEST SWAP3 SWAP2 POP POP JUMP INVALID LOG2 PUSH5 0x6970667358 0x22 SLT KECCAK256 0xB1 CODESIZE 0xAC CHAINID 0xC3 MSTORE8 0xA9 SELFBALANCE ADDMOD 0xED 0xD1 0xCB 0xC5 MUL 0x4B PUSH0 DUP13 0xFB EXTCODEHASH PUSH16 0x224582F3D181F7848324DF8064736F6C PUSH4 0x43000814 STOP CALLER "},"methodIdentifiers":{"mint()":"1249c58b","totalMinted()":"a2309ff8"}}}}}