{
  "_format": "hh-sol-artifact-1",
  "contractName": "MyContract",
  "sourceName": "contracts/MyContract.sol",
  "abi": [
    {
      "anonymous": false,
      "inputs": [
        {
          "indexed": true,
          "internalType": "address",
          "name": "minter",
          "type": "address"
        }
      ],
      "name": "Minted",
      "type": "event"
    },
    {
      "inputs": [],
      "name": "mint",
      "outputs": [],
      "stateMutability": "nonpayable",
      "type": "function"
    },
    {
      "inputs": [],
      "name": "totalMinted",
      "outputs": [
        {
          "internalType": "uint256",
          "name": "",
          "type": "uint256"
        }
      ],
      "stateMutability": "view",
      "type": "function"
    }
  ],
  "bytecode": "0x608060405234801561001057600080fd5b50610194806100206000396000f3fe608060405234801561001057600080fd5b50600436106100365760003560e01c80631249c58b1461003b578063a2309ff814610045575b600080fd5b610043610063565b005b61004d6100c1565b60405161005a91906100e0565b60405180910390f35b6001600080828254610075919061012a565b925050819055503373ffffffffffffffffffffffffffffffffffffffff167f90ddedd5a25821bba11fbb98de02ec1f75c1be90ae147d6450ce873e7b78b5d860405160405180910390a2565b60005481565b6000819050919050565b6100da816100c7565b82525050565b60006020820190506100f560008301846100d1565b92915050565b7f4e487b7100000000000000000000000000000000000000000000000000000000600052601160045260246000fd5b6000610135826100c7565b9150610140836100c7565b9250828201905080821115610158576101576100fb565b5b9291505056fea2646970667358221220b138ac46c353a94708edd1cbc5024b5f8cfb3f6f224582f3d181f7848324df8064736f6c63430008140033",
  "linkReferences": {},
  "deployedLinkReferences": {}
}